{
    "contractAddress": "0x5FbDB2315678afecb367f032d93F642f64180aa3",
    "_format": "hh-sol-artifact-1",
    "contractName": "MusitNFT",
    "sourceName": "contracts/MusitNFT.sol",
    "abi": [
        {
            "inputs": [],
            "stateMutability": "nonpayable",
            "type": "constructor"
        },
        {
            "anonymous": false,
            "inputs": [
                {
                    "indexed": true,
                    "internalType": "address",
                    "name": "owner",
                    "type": "address"
                },
                {
                    "indexed": true,
                    "internalType": "address",
                    "name": "approved",
                    "type": "address"
                },
                {
                    "indexed": true,
                    "internalType": "uint256",
                    "name": "tokenId",
                    "type": "uint256"
                }
            ],
            "name": "Approval",
            "type": "event"
        },
        {
            "anonymous": false,
            "inputs": [
                {
                    "indexed": true,
                    "internalType": "address",
                    "name": "owner",
                    "type": "address"
                },
                {
                    "indexed": true,
                    "internalType": "address",
                    "name": "operator",
                    "type": "address"
                },
                {
                    "indexed": false,
                    "internalType": "bool",
                    "name": "approved",
                    "type": "bool"
                }
            ],
            "name": "ApprovalForAll",
            "type": "event"
        },
        {
            "anonymous": false,
            "inputs": [
                {
                    "indexed": true,
                    "internalType": "uint256",
                    "name": "tokenId",
                    "type": "uint256"
                },
                {
                    "indexed": false,
                    "internalType": "string",
                    "name": "tokenURI",
                    "type": "string"
                }
            ],
            "name": "MintMusitNFT",
            "type": "event"
        },
        {
            "anonymous": false,
            "inputs": [
                {
                    "indexed": true,
                    "internalType": "address",
                    "name": "previousOwner",
                    "type": "address"
                },
                {
                    "indexed": true,
                    "internalType": "address",
                    "name": "newOwner",
                    "type": "address"
                }
            ],
            "name": "OwnershipTransferred",
            "type": "event"
        },
        {
            "anonymous": false,
            "inputs": [
                {
                    "indexed": true,
                    "internalType": "address",
                    "name": "from",
                    "type": "address"
                },
                {
                    "indexed": true,
                    "internalType": "address",
                    "name": "to",
                    "type": "address"
                },
                {
                    "indexed": true,
                    "internalType": "uint256",
                    "name": "tokenId",
                    "type": "uint256"
                }
            ],
            "name": "Transfer",
            "type": "event"
        },
        {
            "inputs": [
                {
                    "internalType": "address",
                    "name": "to",
                    "type": "address"
                },
                {
                    "internalType": "uint256",
                    "name": "tokenId",
                    "type": "uint256"
                }
            ],
            "name": "approve",
            "outputs": [],
            "stateMutability": "nonpayable",
            "type": "function"
        },
        {
            "inputs": [
                {
                    "internalType": "address",
                    "name": "owner",
                    "type": "address"
                }
            ],
            "name": "balanceOf",
            "outputs": [
                {
                    "internalType": "uint256",
                    "name": "",
                    "type": "uint256"
                }
            ],
            "stateMutability": "view",
            "type": "function"
        },
        {
            "inputs": [
                {
                    "internalType": "uint256",
                    "name": "tokenId",
                    "type": "uint256"
                }
            ],
            "name": "getApproved",
            "outputs": [
                {
                    "internalType": "address",
                    "name": "",
                    "type": "address"
                }
            ],
            "stateMutability": "view",
            "type": "function"
        },
        {
            "inputs": [],
            "name": "getMintsPerWallet",
            "outputs": [
                {
                    "internalType": "uint256",
                    "name": "",
                    "type": "uint256"
                }
            ],
            "stateMutability": "view",
            "type": "function"
        },
        {
            "inputs": [
                {
                    "internalType": "address",
                    "name": "owner",
                    "type": "address"
                },
                {
                    "internalType": "address",
                    "name": "operator",
                    "type": "address"
                }
            ],
            "name": "isApprovedForAll",
            "outputs": [
                {
                    "internalType": "bool",
                    "name": "",
                    "type": "bool"
                }
            ],
            "stateMutability": "view",
            "type": "function"
        },
        {
            "inputs": [],
            "name": "isMintEnabled",
            "outputs": [
                {
                    "internalType": "bool",
                    "name": "",
                    "type": "bool"
                }
            ],
            "stateMutability": "view",
            "type": "function"
        },
        {
            "inputs": [],
            "name": "maxMintsPerTx",
            "outputs": [
                {
                    "internalType": "uint256",
                    "name": "",
                    "type": "uint256"
                }
            ],
            "stateMutability": "view",
            "type": "function"
        },
        {
            "inputs": [],
            "name": "maxMintsPerWallet",
            "outputs": [
                {
                    "internalType": "uint256",
                    "name": "",
                    "type": "uint256"
                }
            ],
            "stateMutability": "view",
            "type": "function"
        },
        {
            "inputs": [],
            "name": "maxSupply",
            "outputs": [
                {
                    "internalType": "uint256",
                    "name": "",
                    "type": "uint256"
                }
            ],
            "stateMutability": "view",
            "type": "function"
        },
        {
            "inputs": [],
            "name": "mintPrice",
            "outputs": [
                {
                    "internalType": "uint256",
                    "name": "",
                    "type": "uint256"
                }
            ],
            "stateMutability": "view",
            "type": "function"
        },
        {
            "inputs": [
                {
                    "internalType": "string",
                    "name": "_tokenURI",
                    "type": "string"
                }
            ],
            "name": "minting",
            "outputs": [
                {
                    "internalType": "uint256",
                    "name": "",
                    "type": "uint256"
                }
            ],
            "stateMutability": "payable",
            "type": "function"
        },
        {
            "inputs": [],
            "name": "name",
            "outputs": [
                {
                    "internalType": "string",
                    "name": "",
                    "type": "string"
                }
            ],
            "stateMutability": "view",
            "type": "function"
        },
        {
            "inputs": [],
            "name": "owner",
            "outputs": [
                {
                    "internalType": "address",
                    "name": "",
                    "type": "address"
                }
            ],
            "stateMutability": "view",
            "type": "function"
        },
        {
            "inputs": [
                {
                    "internalType": "uint256",
                    "name": "tokenId",
                    "type": "uint256"
                }
            ],
            "name": "ownerOf",
            "outputs": [
                {
                    "internalType": "address",
                    "name": "",
                    "type": "address"
                }
            ],
            "stateMutability": "view",
            "type": "function"
        },
        {
            "inputs": [],
            "name": "renounceOwnership",
            "outputs": [],
            "stateMutability": "nonpayable",
            "type": "function"
        },
        {
            "inputs": [
                {
                    "internalType": "address",
                    "name": "from",
                    "type": "address"
                },
                {
                    "internalType": "address",
                    "name": "to",
                    "type": "address"
                },
                {
                    "internalType": "uint256",
                    "name": "tokenId",
                    "type": "uint256"
                }
            ],
            "name": "safeTransferFrom",
            "outputs": [],
            "stateMutability": "nonpayable",
            "type": "function"
        },
        {
            "inputs": [
                {
                    "internalType": "address",
                    "name": "from",
                    "type": "address"
                },
                {
                    "internalType": "address",
                    "name": "to",
                    "type": "address"
                },
                {
                    "internalType": "uint256",
                    "name": "tokenId",
                    "type": "uint256"
                },
                {
                    "internalType": "bytes",
                    "name": "_data",
                    "type": "bytes"
                }
            ],
            "name": "safeTransferFrom",
            "outputs": [],
            "stateMutability": "nonpayable",
            "type": "function"
        },
        {
            "inputs": [
                {
                    "internalType": "address",
                    "name": "operator",
                    "type": "address"
                },
                {
                    "internalType": "bool",
                    "name": "approved",
                    "type": "bool"
                }
            ],
            "name": "setApprovalForAll",
            "outputs": [],
            "stateMutability": "nonpayable",
            "type": "function"
        },
        {
            "inputs": [
                {
                    "internalType": "bool",
                    "name": "_isMintEnabled",
                    "type": "bool"
                }
            ],
            "name": "setIsMintEnabled",
            "outputs": [],
            "stateMutability": "nonpayable",
            "type": "function"
        },
        {
            "inputs": [
                {
                    "internalType": "uint256",
                    "name": "_maxMintPerTx",
                    "type": "uint256"
                }
            ],
            "name": "setMaxMintsPerTx",
            "outputs": [],
            "stateMutability": "nonpayable",
            "type": "function"
        },
        {
            "inputs": [
                {
                    "internalType": "uint256",
                    "name": "_maxMintsPerWallet",
                    "type": "uint256"
                }
            ],
            "name": "setMaxMintsPerWallet",
            "outputs": [],
            "stateMutability": "nonpayable",
            "type": "function"
        },
        {
            "inputs": [
                {
                    "internalType": "uint256",
                    "name": "_maxSupply",
                    "type": "uint256"
                }
            ],
            "name": "setMaxSupply",
            "outputs": [],
            "stateMutability": "nonpayable",
            "type": "function"
        },
        {
            "inputs": [
                {
                    "internalType": "uint256",
                    "name": "_mintPrice",
                    "type": "uint256"
                }
            ],
            "name": "setMintPrice",
            "outputs": [],
            "stateMutability": "nonpayable",
            "type": "function"
        },
        {
            "inputs": [
                {
                    "internalType": "bytes4",
                    "name": "interfaceId",
                    "type": "bytes4"
                }
            ],
            "name": "supportsInterface",
            "outputs": [
                {
                    "internalType": "bool",
                    "name": "",
                    "type": "bool"
                }
            ],
            "stateMutability": "view",
            "type": "function"
        },
        {
            "inputs": [],
            "name": "symbol",
            "outputs": [
                {
                    "internalType": "string",
                    "name": "",
                    "type": "string"
                }
            ],
            "stateMutability": "view",
            "type": "function"
        },
        {
            "inputs": [],
            "name": "tokenId",
            "outputs": [
                {
                    "internalType": "uint256",
                    "name": "_value",
                    "type": "uint256"
                }
            ],
            "stateMutability": "view",
            "type": "function"
        },
        {
            "inputs": [
                {
                    "internalType": "uint256",
                    "name": "tokenId",
                    "type": "uint256"
                }
            ],
            "name": "tokenURI",
            "outputs": [
                {
                    "internalType": "string",
                    "name": "",
                    "type": "string"
                }
            ],
            "stateMutability": "view",
            "type": "function"
        },
        {
            "inputs": [],
            "name": "totalSupplied",
            "outputs": [
                {
                    "internalType": "uint256",
                    "name": "",
                    "type": "uint256"
                }
            ],
            "stateMutability": "view",
            "type": "function"
        },
        {
            "inputs": [
                {
                    "internalType": "address",
                    "name": "from",
                    "type": "address"
                },
                {
                    "internalType": "address",
                    "name": "to",
                    "type": "address"
                },
                {
                    "internalType": "uint256",
                    "name": "tokenId",
                    "type": "uint256"
                }
            ],
            "name": "transferFrom",
            "outputs": [],
            "stateMutability": "nonpayable",
            "type": "function"
        },
        {
            "inputs": [
                {
                    "internalType": "address",
                    "name": "newOwner",
                    "type": "address"
                }
            ],
            "name": "transferOwnership",
            "outputs": [],
            "stateMutability": "nonpayable",
            "type": "function"
        }
    ],
    "bytecode": "0x60806040523480156200001157600080fd5b506040518060400160405280600981526020017f4d75736974204e465400000000000000000000000000000000000000000000008152506040518060400160405280600581526020017f4d55534954000000000000000000000000000000000000000000000000000000815250816000908051906020019062000096929190620001cc565b508060019080519060200190620000af929190620001cc565b505050620000d2620000c6620000fe60201b60201c565b6200010660201b60201c565b662386f26fc100006008819055506014600a819055506002600b819055506001600c81905550620002e1565b600033905090565b6000600760009054906101000a900473ffffffffffffffffffffffffffffffffffffffff16905081600760006101000a81548173ffffffffffffffffffffffffffffffffffffffff021916908373ffffffffffffffffffffffffffffffffffffffff1602179055508173ffffffffffffffffffffffffffffffffffffffff168173ffffffffffffffffffffffffffffffffffffffff167f8be0079c531659141344cd1fd0a4f28419497f9722a3daafe3b4186f6b6457e060405160405180910390a35050565b828054620001da906200027c565b90600052602060002090601f016020900481019282620001fe57600085556200024a565b82601f106200021957805160ff19168380011785556200024a565b828001600101855582156200024a579182015b82811115620002495782518255916020019190600101906200022c565b5b5090506200025991906200025d565b5090565b5b80821115620002785760008160009055506001016200025e565b5090565b600060028204905060018216806200029557607f821691505b60208210811415620002ac57620002ab620002b2565b5b50919050565b7f4e487b7100000000000000000000000000000000000000000000000000000000600052602260045260246000fd5b613a8980620002f16000396000f3fe6080604052600436106101cd5760003560e01c80636f8b44b0116100f7578063b88d4fde11610095578063e985e9c511610064578063e985e9c514610669578063f2fde38b146106a6578063f4a0a528146106cf578063f516a2e6146106f8576101cd565b8063b88d4fde146105ad578063c87b56dd146105d6578063d5abeb0114610613578063dc30158b1461063e576101cd565b80638da5cb5b116100d15780638da5cb5b1461050557806395d89b4114610530578063963c35461461055b578063a22cb46514610584576101cd565b80636f8b44b01461048857806370a08231146104b1578063715018a6146104ee576101cd565b806323b872dd1161016f5780634de8bcfb1161013e5780634de8bcfb146103cc578063630fd0ac146103f55780636352211e146104205780636817c76c1461045d576101cd565b806323b872dd146103245780632f77ff1f1461034d578063346de50a1461037857806342842e0e146103a3576101cd565b8063095ea7b3116101ab578063095ea7b3146102775780630bdc9008146102a0578063174da4a2146102d057806317d70f7c146102f9576101cd565b806301ffc9a7146101d257806306fdde031461020f578063081812fc1461023a575b600080fd5b3480156101de57600080fd5b506101f960048036038101906101f49190612847565b610723565b6040516102069190612d60565b60405180910390f35b34801561021b57600080fd5b50610224610805565b6040516102319190612d7b565b60405180910390f35b34801561024657600080fd5b50610261600480360381019061025c91906128da565b610897565b60405161026e9190612cf9565b60405180910390f35b34801561028357600080fd5b5061029e600480360381019061029991906127e2565b61091c565b005b6102ba60048036038101906102b59190612899565b610a34565b6040516102c7919061305d565b60405180910390f35b3480156102dc57600080fd5b506102f760048036038101906102f291906128da565b610c5d565b005b34801561030557600080fd5b5061030e610ce3565b60405161031b919061305d565b60405180910390f35b34801561033057600080fd5b5061034b600480360381019061034691906126dc565b610cef565b005b34801561035957600080fd5b50610362610d4f565b60405161036f919061305d565b60405180910390f35b34801561038457600080fd5b5061038d610d96565b60405161039a9190612d60565b60405180910390f35b3480156103af57600080fd5b506103ca60048036038101906103c591906126dc565b610da9565b005b3480156103d857600080fd5b506103f360048036038101906103ee919061281e565b610dc9565b005b34801561040157600080fd5b5061040a610e62565b604051610417919061305d565b60405180910390f35b34801561042c57600080fd5b50610447600480360381019061044291906128da565b610e68565b6040516104549190612cf9565b60405180910390f35b34801561046957600080fd5b50610472610f1a565b60405161047f919061305d565b60405180910390f35b34801561049457600080fd5b506104af60048036038101906104aa91906128da565b610f20565b005b3480156104bd57600080fd5b506104d860048036038101906104d39190612677565b610fa6565b6040516104e5919061305d565b60405180910390f35b3480156104fa57600080fd5b5061050361105e565b005b34801561051157600080fd5b5061051a6110e6565b6040516105279190612cf9565b60405180910390f35b34801561053c57600080fd5b50610545611110565b6040516105529190612d7b565b60405180910390f35b34801561056757600080fd5b50610582600480360381019061057d91906128da565b6111a2565b005b34801561059057600080fd5b506105ab60048036038101906105a691906127a6565b611228565b005b3480156105b957600080fd5b506105d460048036038101906105cf919061272b565b61123e565b005b3480156105e257600080fd5b506105fd60048036038101906105f891906128da565b6112a0565b60405161060a9190612d7b565b60405180910390f35b34801561061f57600080fd5b506106286113f2565b604051610635919061305d565b60405180910390f35b34801561064a57600080fd5b506106536113f8565b604051610660919061305d565b60405180910390f35b34801561067557600080fd5b50610690600480360381019061068b91906126a0565b6113fe565b60405161069d9190612d60565b60405180910390f35b3480156106b257600080fd5b506106cd60048036038101906106c89190612677565b611492565b005b3480156106db57600080fd5b506106f660048036038101906106f191906128da565b61158a565b005b34801561070457600080fd5b5061070d611610565b60405161071a919061305d565b60405180910390f35b60007f80ac58cd000000000000000000000000000000000000000000000000000000007bffffffffffffffffffffffffffffffffffffffffffffffffffffffff1916827bffffffffffffffffffffffffffffffffffffffffffffffffffffffff191614806107ee57507f5b5e139f000000000000000000000000000000000000000000000000000000007bffffffffffffffffffffffffffffffffffffffffffffffffffffffff1916827bffffffffffffffffffffffffffffffffffffffffffffffffffffffff1916145b806107fe57506107fd82611616565b5b9050919050565b606060008054610814906132b3565b80601f0160208091040260200160405190810160405280929190818152602001828054610840906132b3565b801561088d5780601f106108625761010080835404028352916020019161088d565b820191906000526020600020905b81548152906001019060200180831161087057829003601f168201915b5050505050905090565b60006108a282611680565b6108e1576040517f08c379a00000000000000000000000000000000000000000000000000000000081526004016108d890612f5d565b60405180910390fd5b6004600083815260200190815260200160002060009054906101000a900473ffffffffffffffffffffffffffffffffffffffff169050919050565b600061092782610e68565b90508073ffffffffffffffffffffffffffffffffffffffff168373ffffffffffffffffffffffffffffffffffffffff161415610998576040517f08c379a000000000000000000000000000000000000000000000000000000000815260040161098f90612fdd565b60405180910390fd5b8073ffffffffffffffffffffffffffffffffffffffff166109b76116ec565b73ffffffffffffffffffffffffffffffffffffffff1614806109e657506109e5816109e06116ec565b6113fe565b5b610a25576040517f08c379a0000000000000000000000000000000000000000000000000000000008152600401610a1c90612e7d565b60405180910390fd5b610a2f83836116f4565b505050565b6000600d60009054906101000a900460ff16610a85576040517f08c379a0000000000000000000000000000000000000000000000000000000008152600401610a7c90612f7d565b60405180910390fd5b6008543414610ac9576040517f08c379a0000000000000000000000000000000000000000000000000000000008152600401610ac09061301d565b60405180910390fd5b600a546009541115610b10576040517f08c379a0000000000000000000000000000000000000000000000000000000008152600401610b079061303d565b60405180910390fd5b600b54600f60003373ffffffffffffffffffffffffffffffffffffffff1673ffffffffffffffffffffffffffffffffffffffff168152602001908152602001600020541115610b94576040517f08c379a0000000000000000000000000000000000000000000000000000000008152600401610b8b90612efd565b60405180910390fd5b610b9e600e6117ad565b6000610baa600e6117c3565b9050610bb633826117d1565b610bc081846117ef565b807ff187509bab10aaa430566197a379d21d0b15e1292d3957a948057bc7dc30278284604051610bf09190612d7b565b60405180910390a2600f60003373ffffffffffffffffffffffffffffffffffffffff1673ffffffffffffffffffffffffffffffffffffffff1681526020019081526020016000206000815480929190610c4890613316565b91905055508060098190555080915050919050565b610c656116ec565b73ffffffffffffffffffffffffffffffffffffffff16610c836110e6565b73ffffffffffffffffffffffffffffffffffffffff1614610cd9576040517f08c379a0000000000000000000000000000000000000000000000000000000008152600401610cd090612f9d565b60405180910390fd5b80600c8190555050565b600e8060000154905081565b610d00610cfa6116ec565b82611863565b610d3f576040517f08c379a0000000000000000000000000000000000000000000000000000000008152600401610d3690612ffd565b60405180910390fd5b610d4a838383611941565b505050565b6000600f60003373ffffffffffffffffffffffffffffffffffffffff1673ffffffffffffffffffffffffffffffffffffffff16815260200190815260200160002054905090565b600d60009054906101000a900460ff1681565b610dc48383836040518060200160405280600081525061123e565b505050565b610dd16116ec565b73ffffffffffffffffffffffffffffffffffffffff16610def6110e6565b73ffffffffffffffffffffffffffffffffffffffff1614610e45576040517f08c379a0000000000000000000000000000000000000000000000000000000008152600401610e3c90612f9d565b60405180910390fd5b80600d60006101000a81548160ff02191690831515021790555050565b60095481565b6000806002600084815260200190815260200160002060009054906101000a900473ffffffffffffffffffffffffffffffffffffffff169050600073ffffffffffffffffffffffffffffffffffffffff168173ffffffffffffffffffffffffffffffffffffffff161415610f11576040517f08c379a0000000000000000000000000000000000000000000000000000000008152600401610f0890612ebd565b60405180910390fd5b80915050919050565b60085481565b610f286116ec565b73ffffffffffffffffffffffffffffffffffffffff16610f466110e6565b73ffffffffffffffffffffffffffffffffffffffff1614610f9c576040517f08c379a0000000000000000000000000000000000000000000000000000000008152600401610f9390612f9d565b60405180910390fd5b80600a8190555050565b60008073ffffffffffffffffffffffffffffffffffffffff168273ffffffffffffffffffffffffffffffffffffffff161415611017576040517f08c379a000000000000000000000000000000000000000000000000000000000815260040161100e90612e9d565b60405180910390fd5b600360008373ffffffffffffffffffffffffffffffffffffffff1673ffffffffffffffffffffffffffffffffffffffff168152602001908152602001600020549050919050565b6110666116ec565b73ffffffffffffffffffffffffffffffffffffffff166110846110e6565b73ffffffffffffffffffffffffffffffffffffffff16146110da576040517f08c379a00000000000000000000000000000000000000000000000000000000081526004016110d190612f9d565b60405180910390fd5b6110e46000611ba8565b565b6000600760009054906101000a900473ffffffffffffffffffffffffffffffffffffffff16905090565b60606001805461111f906132b3565b80601f016020809104026020016040519081016040528092919081815260200182805461114b906132b3565b80156111985780601f1061116d57610100808354040283529160200191611198565b820191906000526020600020905b81548152906001019060200180831161117b57829003601f168201915b5050505050905090565b6111aa6116ec565b73ffffffffffffffffffffffffffffffffffffffff166111c86110e6565b73ffffffffffffffffffffffffffffffffffffffff161461121e576040517f08c379a000000000000000000000000000000000000000000000000000000000815260040161121590612f9d565b60405180910390fd5b80600b8190555050565b61123a6112336116ec565b8383611c6e565b5050565b61124f6112496116ec565b83611863565b61128e576040517f08c379a000000000000000000000000000000000000000000000000000000000815260040161128590612ffd565b60405180910390fd5b61129a84848484611ddb565b50505050565b60606112ab82611680565b6112ea576040517f08c379a00000000000000000000000000000000000000000000000000000000081526004016112e190612f3d565b60405180910390fd5b600060066000848152602001908152602001600020805461130a906132b3565b80601f0160208091040260200160405190810160405280929190818152602001828054611336906132b3565b80156113835780601f1061135857610100808354040283529160200191611383565b820191906000526020600020905b81548152906001019060200180831161136657829003601f168201915b505050505090506000611394611e37565b90506000815114156113aa5781925050506113ed565b6000825111156113df5780826040516020016113c7929190612cd5565b604051602081830303815290604052925050506113ed565b6113e884611e4e565b925050505b919050565b600a5481565b600c5481565b6000600560008473ffffffffffffffffffffffffffffffffffffffff1673ffffffffffffffffffffffffffffffffffffffff16815260200190815260200160002060008373ffffffffffffffffffffffffffffffffffffffff1673ffffffffffffffffffffffffffffffffffffffff16815260200190815260200160002060009054906101000a900460ff16905092915050565b61149a6116ec565b73ffffffffffffffffffffffffffffffffffffffff166114b86110e6565b73ffffffffffffffffffffffffffffffffffffffff161461150e576040517f08c379a000000000000000000000000000000000000000000000000000000000815260040161150590612f9d565b60405180910390fd5b600073ffffffffffffffffffffffffffffffffffffffff168173ffffffffffffffffffffffffffffffffffffffff16141561157e576040517f08c379a000000000000000000000000000000000000000000000000000000000815260040161157590612dbd565b60405180910390fd5b61158781611ba8565b50565b6115926116ec565b73ffffffffffffffffffffffffffffffffffffffff166115b06110e6565b73ffffffffffffffffffffffffffffffffffffffff1614611606576040517f08c379a00000000000000000000000000000000000000000000000000000000081526004016115fd90612f9d565b60405180910390fd5b8060088190555050565b600b5481565b60007f01ffc9a7000000000000000000000000000000000000000000000000000000007bffffffffffffffffffffffffffffffffffffffffffffffffffffffff1916827bffffffffffffffffffffffffffffffffffffffffffffffffffffffff1916149050919050565b60008073ffffffffffffffffffffffffffffffffffffffff166002600084815260200190815260200160002060009054906101000a900473ffffffffffffffffffffffffffffffffffffffff1673ffffffffffffffffffffffffffffffffffffffff1614159050919050565b600033905090565b816004600083815260200190815260200160002060006101000a81548173ffffffffffffffffffffffffffffffffffffffff021916908373ffffffffffffffffffffffffffffffffffffffff160217905550808273ffffffffffffffffffffffffffffffffffffffff1661176783610e68565b73ffffffffffffffffffffffffffffffffffffffff167f8c5be1e5ebec7d5bd14f71427d1e84f3dd0314c0f7b2291e5b200ac8c7c3b92560405160405180910390a45050565b6001816000016000828254019250508190555050565b600081600001549050919050565b6117eb828260405180602001604052806000815250611ef5565b5050565b6117f882611680565b611837576040517f08c379a000000000000000000000000000000000000000000000000000000000815260040161182e90612edd565b60405180910390fd5b8060066000848152602001908152602001600020908051906020019061185e92919061249b565b505050565b600061186e82611680565b6118ad576040517f08c379a00000000000000000000000000000000000000000000000000000000081526004016118a490612e5d565b60405180910390fd5b60006118b883610e68565b90508073ffffffffffffffffffffffffffffffffffffffff168473ffffffffffffffffffffffffffffffffffffffff16148061192757508373ffffffffffffffffffffffffffffffffffffffff1661190f84610897565b73ffffffffffffffffffffffffffffffffffffffff16145b80611938575061193781856113fe565b5b91505092915050565b8273ffffffffffffffffffffffffffffffffffffffff1661196182610e68565b73ffffffffffffffffffffffffffffffffffffffff16146119b7576040517f08c379a00000000000000000000000000000000000000000000000000000000081526004016119ae90612ddd565b60405180910390fd5b600073ffffffffffffffffffffffffffffffffffffffff168273ffffffffffffffffffffffffffffffffffffffff161415611a27576040517f08c379a0000000000000000000000000000000000000000000000000000000008152600401611a1e90612e1d565b60405180910390fd5b611a32838383611f50565b611a3d6000826116f4565b6001600360008573ffffffffffffffffffffffffffffffffffffffff1673ffffffffffffffffffffffffffffffffffffffff1681526020019081526020016000206000828254611a8d91906131c9565b925050819055506001600360008473ffffffffffffffffffffffffffffffffffffffff1673ffffffffffffffffffffffffffffffffffffffff1681526020019081526020016000206000828254611ae49190613142565b92505081905550816002600083815260200190815260200160002060006101000a81548173ffffffffffffffffffffffffffffffffffffffff021916908373ffffffffffffffffffffffffffffffffffffffff160217905550808273ffffffffffffffffffffffffffffffffffffffff168473ffffffffffffffffffffffffffffffffffffffff167fddf252ad1be2c89b69c2b068fc378daa952ba7f163c4a11628f55a4df523b3ef60405160405180910390a4611ba3838383611f55565b505050565b6000600760009054906101000a900473ffffffffffffffffffffffffffffffffffffffff16905081600760006101000a81548173ffffffffffffffffffffffffffffffffffffffff021916908373ffffffffffffffffffffffffffffffffffffffff1602179055508173ffffffffffffffffffffffffffffffffffffffff168173ffffffffffffffffffffffffffffffffffffffff167f8be0079c531659141344cd1fd0a4f28419497f9722a3daafe3b4186f6b6457e060405160405180910390a35050565b8173ffffffffffffffffffffffffffffffffffffffff168373ffffffffffffffffffffffffffffffffffffffff161415611cdd576040517f08c379a0000000000000000000000000000000000000000000000000000000008152600401611cd490612e3d565b60405180910390fd5b80600560008573ffffffffffffffffffffffffffffffffffffffff1673ffffffffffffffffffffffffffffffffffffffff16815260200190815260200160002060008473ffffffffffffffffffffffffffffffffffffffff1673ffffffffffffffffffffffffffffffffffffffff16815260200190815260200160002060006101000a81548160ff0219169083151502179055508173ffffffffffffffffffffffffffffffffffffffff168373ffffffffffffffffffffffffffffffffffffffff167f17307eab39ab6107e8899845ad3d59bd9653f200f220920489ca2b5937696c3183604051611dce9190612d60565b60405180910390a3505050565b611de6848484611941565b611df284848484611f5a565b611e31576040517f08c379a0000000000000000000000000000000000000000000000000000000008152600401611e2890612d9d565b60405180910390fd5b50505050565b606060405180602001604052806000815250905090565b6060611e5982611680565b611e98576040517f08c379a0000000000000000000000000000000000000000000000000000000008152600401611e8f90612fbd565b60405180910390fd5b6000611ea2611e37565b90506000815111611ec25760405180602001604052806000815250611eed565b80611ecc846120f1565b604051602001611edd929190612cd5565b6040516020818303038152906040525b915050919050565b611eff838361229e565b611f0c6000848484611f5a565b611f4b576040517f08c379a0000000000000000000000000000000000000000000000000000000008152600401611f4290612d9d565b60405180910390fd5b505050565b505050565b505050565b6000611f7b8473ffffffffffffffffffffffffffffffffffffffff16612478565b156120e4578373ffffffffffffffffffffffffffffffffffffffff1663150b7a02611fa46116ec565b8786866040518563ffffffff1660e01b8152600401611fc69493929190612d14565b602060405180830381600087803b158015611fe057600080fd5b505af192505050801561201157506040513d601f19601f8201168201806040525081019061200e9190612870565b60015b612094573d8060008114612041576040519150601f19603f3d011682016040523d82523d6000602084013e612046565b606091505b5060008151141561208c576040517f08c379a000000000000000000000000000000000000000000000000000000000815260040161208390612d9d565b60405180910390fd5b805181602001fd5b63150b7a0260e01b7bffffffffffffffffffffffffffffffffffffffffffffffffffffffff1916817bffffffffffffffffffffffffffffffffffffffffffffffffffffffff1916149150506120e9565b600190505b949350505050565b60606000821415612139576040518060400160405280600181526020017f30000000000000000000000000000000000000000000000000000000000000008152509050612299565b600082905060005b6000821461216b57808061215490613316565b915050600a826121649190613198565b9150612141565b60008167ffffffffffffffff8111156121ad577f4e487b7100000000000000000000000000000000000000000000000000000000600052604160045260246000fd5b6040519080825280601f01601f1916602001820160405280156121df5781602001600182028036833780820191505090505b5090505b60008514612292576001826121f891906131c9565b9150600a85612207919061335f565b60306122139190613142565b60f81b81838151811061224f577f4e487b7100000000000000000000000000000000000000000000000000000000600052603260045260246000fd5b60200101907effffffffffffffffffffffffffffffffffffffffffffffffffffffffffffff1916908160001a905350600a8561228b9190613198565b94506121e3565b8093505050505b919050565b600073ffffffffffffffffffffffffffffffffffffffff168273ffffffffffffffffffffffffffffffffffffffff16141561230e576040517f08c379a000000000000000000000000000000000000000000000000000000000815260040161230590612f1d565b60405180910390fd5b61231781611680565b15612357576040517f08c379a000000000000000000000000000000000000000000000000000000000815260040161234e90612dfd565b60405180910390fd5b61236360008383611f50565b6001600360008473ffffffffffffffffffffffffffffffffffffffff1673ffffffffffffffffffffffffffffffffffffffff16815260200190815260200160002060008282546123b39190613142565b92505081905550816002600083815260200190815260200160002060006101000a81548173ffffffffffffffffffffffffffffffffffffffff021916908373ffffffffffffffffffffffffffffffffffffffff160217905550808273ffffffffffffffffffffffffffffffffffffffff16600073ffffffffffffffffffffffffffffffffffffffff167fddf252ad1be2c89b69c2b068fc378daa952ba7f163c4a11628f55a4df523b3ef60405160405180910390a461247460008383611f55565b5050565b6000808273ffffffffffffffffffffffffffffffffffffffff163b119050919050565b8280546124a7906132b3565b90600052602060002090601f0160209004810192826124c95760008555612510565b82601f106124e257805160ff1916838001178555612510565b82800160010185558215612510579182015b8281111561250f5782518255916020019190600101906124f4565b5b50905061251d9190612521565b5090565b5b8082111561253a576000816000905550600101612522565b5090565b600061255161254c8461309d565b613078565b90508281526020810184848401111561256957600080fd5b612574848285613271565b509392505050565b600061258f61258a846130ce565b613078565b9050828152602081018484840111156125a757600080fd5b6125b2848285613271565b509392505050565b6000813590506125c9816139f7565b92915050565b6000813590506125de81613a0e565b92915050565b6000813590506125f381613a25565b92915050565b60008151905061260881613a25565b92915050565b600082601f83011261261f57600080fd5b813561262f84826020860161253e565b91505092915050565b600082601f83011261264957600080fd5b813561265984826020860161257c565b91505092915050565b60008135905061267181613a3c565b92915050565b60006020828403121561268957600080fd5b6000612697848285016125ba565b91505092915050565b600080604083850312156126b357600080fd5b60006126c1858286016125ba565b92505060206126d2858286016125ba565b9150509250929050565b6000806000606084860312156126f157600080fd5b60006126ff868287016125ba565b9350506020612710868287016125ba565b925050604061272186828701612662565b9150509250925092565b6000806000806080858703121561274157600080fd5b600061274f878288016125ba565b9450506020612760878288016125ba565b935050604061277187828801612662565b925050606085013567ffffffffffffffff81111561278e57600080fd5b61279a8782880161260e565b91505092959194509250565b600080604083850312156127b957600080fd5b60006127c7858286016125ba565b92505060206127d8858286016125cf565b9150509250929050565b600080604083850312156127f557600080fd5b6000612803858286016125ba565b925050602061281485828601612662565b9150509250929050565b60006020828403121561283057600080fd5b600061283e848285016125cf565b91505092915050565b60006020828403121561285957600080fd5b6000612867848285016125e4565b91505092915050565b60006020828403121561288257600080fd5b6000612890848285016125f9565b91505092915050565b6000602082840312156128ab57600080fd5b600082013567ffffffffffffffff8111156128c557600080fd5b6128d184828501612638565b91505092915050565b6000602082840312156128ec57600080fd5b60006128fa84828501612662565b91505092915050565b61290c816131fd565b82525050565b61291b8161320f565b82525050565b600061292c826130ff565b6129368185613115565b9350612946818560208601613280565b61294f8161344c565b840191505092915050565b60006129658261310a565b61296f8185613126565b935061297f818560208601613280565b6129888161344c565b840191505092915050565b600061299e8261310a565b6129a88185613137565b93506129b8818560208601613280565b80840191505092915050565b60006129d1603283613126565b91506129dc8261345d565b604082019050919050565b60006129f4602683613126565b91506129ff826134ac565b604082019050919050565b6000612a17602583613126565b9150612a22826134fb565b604082019050919050565b6000612a3a601c83613126565b9150612a458261354a565b602082019050919050565b6000612a5d602483613126565b9150612a6882613573565b604082019050919050565b6000612a80601983613126565b9150612a8b826135c2565b602082019050919050565b6000612aa3602c83613126565b9150612aae826135eb565b604082019050919050565b6000612ac6603883613126565b9150612ad18261363a565b604082019050919050565b6000612ae9602a83613126565b9150612af482613689565b604082019050919050565b6000612b0c602983613126565b9150612b17826136d8565b604082019050919050565b6000612b2f602e83613126565b9150612b3a82613727565b604082019050919050565b6000612b52601483613126565b9150612b5d82613776565b602082019050919050565b6000612b75602083613126565b9150612b808261379f565b602082019050919050565b6000612b98603183613126565b9150612ba3826137c8565b604082019050919050565b6000612bbb602c83613126565b9150612bc682613817565b604082019050919050565b6000612bde601f83613126565b9150612be982613866565b602082019050919050565b6000612c01602083613126565b9150612c0c8261388f565b602082019050919050565b6000612c24602f83613126565b9150612c2f826138b8565b604082019050919050565b6000612c47602183613126565b9150612c5282613907565b604082019050919050565b6000612c6a603183613126565b9150612c7582613956565b604082019050919050565b6000612c8d601183613126565b9150612c98826139a5565b602082019050919050565b6000612cb0600a83613126565b9150612cbb826139ce565b602082019050919050565b612ccf81613267565b82525050565b6000612ce18285612993565b9150612ced8284612993565b91508190509392505050565b6000602082019050612d0e6000830184612903565b92915050565b6000608082019050612d296000830187612903565b612d366020830186612903565b612d436040830185612cc6565b8181036060830152612d558184612921565b905095945050505050565b6000602082019050612d756000830184612912565b92915050565b60006020820190508181036000830152612d95818461295a565b905092915050565b60006020820190508181036000830152612db6816129c4565b9050919050565b60006020820190508181036000830152612dd6816129e7565b9050919050565b60006020820190508181036000830152612df681612a0a565b9050919050565b60006020820190508181036000830152612e1681612a2d565b9050919050565b60006020820190508181036000830152612e3681612a50565b9050919050565b60006020820190508181036000830152612e5681612a73565b9050919050565b60006020820190508181036000830152612e7681612a96565b9050919050565b60006020820190508181036000830152612e9681612ab9565b9050919050565b60006020820190508181036000830152612eb681612adc565b9050919050565b60006020820190508181036000830152612ed681612aff565b9050919050565b60006020820190508181036000830152612ef681612b22565b9050919050565b60006020820190508181036000830152612f1681612b45565b9050919050565b60006020820190508181036000830152612f3681612b68565b9050919050565b60006020820190508181036000830152612f5681612b8b565b9050919050565b60006020820190508181036000830152612f7681612bae565b9050919050565b60006020820190508181036000830152612f9681612bd1565b9050919050565b60006020820190508181036000830152612fb681612bf4565b9050919050565b60006020820190508181036000830152612fd681612c17565b9050919050565b60006020820190508181036000830152612ff681612c3a565b9050919050565b6000602082019050818103600083015261301681612c5d565b9050919050565b6000602082019050818103600083015261303681612c80565b9050919050565b6000602082019050818103600083015261305681612ca3565b9050919050565b60006020820190506130726000830184612cc6565b92915050565b6000613082613093565b905061308e82826132e5565b919050565b6000604051905090565b600067ffffffffffffffff8211156130b8576130b761341d565b5b6130c18261344c565b9050602081019050919050565b600067ffffffffffffffff8211156130e9576130e861341d565b5b6130f28261344c565b9050602081019050919050565b600081519050919050565b600081519050919050565b600082825260208201905092915050565b600082825260208201905092915050565b600081905092915050565b600061314d82613267565b915061315883613267565b9250827fffffffffffffffffffffffffffffffffffffffffffffffffffffffffffffffff0382111561318d5761318c613390565b5b828201905092915050565b60006131a382613267565b91506131ae83613267565b9250826131be576131bd6133bf565b5b828204905092915050565b60006131d482613267565b91506131df83613267565b9250828210156131f2576131f1613390565b5b828203905092915050565b600061320882613247565b9050919050565b60008115159050919050565b60007fffffffff0000000000000000000000000000000000000000000000000000000082169050919050565b600073ffffffffffffffffffffffffffffffffffffffff82169050919050565b6000819050919050565b82818337600083830152505050565b60005b8381101561329e578082015181840152602081019050613283565b838111156132ad576000848401525b50505050565b600060028204905060018216806132cb57607f821691505b602082108114156132df576132de6133ee565b5b50919050565b6132ee8261344c565b810181811067ffffffffffffffff8211171561330d5761330c61341d565b5b80604052505050565b600061332182613267565b91507fffffffffffffffffffffffffffffffffffffffffffffffffffffffffffffffff82141561335457613353613390565b5b600182019050919050565b600061336a82613267565b915061337583613267565b925082613385576133846133bf565b5b828206905092915050565b7f4e487b7100000000000000000000000000000000000000000000000000000000600052601160045260246000fd5b7f4e487b7100000000000000000000000000000000000000000000000000000000600052601260045260246000fd5b7f4e487b7100000000000000000000000000000000000000000000000000000000600052602260045260246000fd5b7f4e487b7100000000000000000000000000000000000000000000000000000000600052604160045260246000fd5b6000601f19601f8301169050919050565b7f4552433732313a207472616e7366657220746f206e6f6e20455243373231526560008201527f63656976657220696d706c656d656e7465720000000000000000000000000000602082015250565b7f4f776e61626c653a206e6577206f776e657220697320746865207a65726f206160008201527f6464726573730000000000000000000000000000000000000000000000000000602082015250565b7f4552433732313a207472616e736665722066726f6d20696e636f72726563742060008201527f6f776e6572000000000000000000000000000000000000000000000000000000602082015250565b7f4552433732313a20746f6b656e20616c7265616479206d696e74656400000000600082015250565b7f4552433732313a207472616e7366657220746f20746865207a65726f2061646460008201527f7265737300000000000000000000000000000000000000000000000000000000602082015250565b7f4552433732313a20617070726f766520746f2063616c6c657200000000000000600082015250565b7f4552433732313a206f70657261746f7220717565727920666f72206e6f6e657860008201527f697374656e7420746f6b656e0000000000000000000000000000000000000000602082015250565b7f4552433732313a20617070726f76652063616c6c6572206973206e6f74206f7760008201527f6e6572206e6f7220617070726f76656420666f7220616c6c0000000000000000602082015250565b7f4552433732313a2062616c616e636520717565727920666f7220746865207a6560008201527f726f206164647265737300000000000000000000000000000000000000000000602082015250565b7f4552433732313a206f776e657220717565727920666f72206e6f6e657869737460008201527f656e7420746f6b656e0000000000000000000000000000000000000000000000602082015250565b7f45524337323155524953746f726167653a2055524920736574206f66206e6f6e60008201527f6578697374656e7420746f6b656e000000000000000000000000000000000000602082015250565b7f45786365656420746f74616c20737570706c792e000000000000000000000000600082015250565b7f4552433732313a206d696e7420746f20746865207a65726f2061646472657373600082015250565b7f45524337323155524953746f726167653a2055524920717565727920666f722060008201527f6e6f6e6578697374656e7420746f6b656e000000000000000000000000000000602082015250565b7f4552433732313a20617070726f76656420717565727920666f72206e6f6e657860008201527f697374656e7420746f6b656e0000000000000000000000000000000000000000602082015250565b7f4d696e742073797374656d206973206e6f7420656e61626c6564207965742e00600082015250565b7f4f776e61626c653a2063616c6c6572206973206e6f7420746865206f776e6572600082015250565b7f4552433732314d657461646174613a2055524920717565727920666f72206e6f60008201527f6e6578697374656e7420746f6b656e0000000000000000000000000000000000602082015250565b7f4552433732313a20617070726f76616c20746f2063757272656e74206f776e6560008201527f7200000000000000000000000000000000000000000000000000000000000000602082015250565b7f4552433732313a207472616e736665722063616c6c6572206973206e6f74206f60008201527f776e6572206e6f7220617070726f766564000000000000000000000000000000602082015250565b7f57726f6e672076616c75652073656e742e000000000000000000000000000000600082015250565b7f20536f6c64206f75742100000000000000000000000000000000000000000000600082015250565b613a00816131fd565b8114613a0b57600080fd5b50565b613a178161320f565b8114613a2257600080fd5b50565b613a2e8161321b565b8114613a3957600080fd5b50565b613a4581613267565b8114613a5057600080fd5b5056fea26469706673582212203dd3951becaa99c10d8fca97f223d9f16effe83e1c955a23fa0da36d11417dc264736f6c63430008040033",
    "linkReferences": {},
    "deployedLinkReferences": {}
}